:100000001BC1000049C1000047C1000045C10000FC
:1000100043C1000041C100003FC100003DC10000DC
:100020003BC1000039C1000037C1000035C10000EC
:1000300033C1000031C100002FC100002DC10000FC
:100040002BC1000029C1000027C1000025C100000C
:1000500023C1000021C100001FC1000033C6000001
:100060001BC10000BCC30000F0C3000015C10000AC
:1000700013C1000011C100000FC100000DC100003C
:100080000BC1000009C1000007C1000005C100004C
:1000900003C1000001C10000FFC000000C948110EA
:1000A000FBC00000F9C00000F7C00000F5C0000070
:1000B000F3C00000F1C00000EFC00000EDC0000080
:1000C000EBC00000E9C00000E7C00000E5C0000090
:1000D000E3C00000E1C00000DFC00000DDC00000A0
:1000E000DBC000009F07A407A907B307BD073608B8
:1000F000C707CF07D707E107EB07F50704080E0886
:100100003608180822082C085A085D084C085008C0
:1001100056089408610865086B086F087308790829
:100120007D088108940887088B088F0800000A0B57
:1001300002090C0D0E080703040100000000000076
:1001400000000000000000000000000000000000AF
:10015000000000000000000012111000000000006C
:10016000000000000000000000000000000000008F
:1001700000000102102020080810204010204080BC
:10018000020102010804020101020408102040805B
:1001900080402010080402018004020180402010E9
:1001A0000804020108040201010204081020408032
:1001B0000102040810204080050505050705080810
:1001C0000808020202020A0A0808040404040101E1
:1001D00001010101010103030303030303030407F6
:1001E00007070C0C0C0C0C0C0C0C0202020206068D
:1001F0000606060606060B0B0B0B0B0B0B0B000083
:100200002200250028002B002E00310034000201BE
:100210000000050108010B01000021002400270057
:100220002A002D0030003300010100000401070105
:100230000A0116025704FD0D11241FBECFEFD1E2B3
:10024000DEBFCDBF00E00CBF12E0A0E0B2E0E0EB0B
:10025000F9E200E00BBF02C007900D92A63CB10787
:10026000D9F724E0A6ECB2E001C01D92A934B20790
:10027000E1F711E0CCE1D1E000E006C021970109EF
:10028000802FFE010E949E13C931D10780E008072C
:10029000A9F73BD30C94D614B3CE089526E040E8DA
:1002A00055E260E070E085ED92E031D268E072E006
:1002B00085ED92E07ED361E972E085ED92E079D33D
:1002C00061E08091060231D76CE086EC92E00E94FA
:1002D000E009811106C060E272E085ED92E05ED334
:1002E000FFCF68EE73E080E090E067D561E086ECD8
:1002F00092E00C949709FC01608171818091060263
:10030000F7C50F931F93CF93DF93CDB7DEB7A497B5
:100310000FB6F894DEBF0FBECDBFBE016F5F7F4F3B
:1003200086EC92E00E94110B0FEC12E06D897E8941
:100330008F89988D8AD0F80171836083698D7A8D59
:100340008B8D9C8D82D0F801738362836D8D7E8D41
:100350008F8D98A17AD0F801758364836DE572E082
:1003600085ED92E01BD34D895E896F89788D24E0FD
:1003700030E085ED92E0A5D461E672E085ED92E093
:100380000DD3F801608171814AE050E085ED92E083
:10039000BED367E672E085ED92E000D3498D5A8DB9
:1003A0006B8D7C8D24E030E085ED92E08AD46CE6A4
:1003B00072E085ED92E0F2D2F801628173814AE049
:1003C00050E085ED92E0A3D362E772E085ED92E024
:1003D000E5D24D8D5E8D6F8D78A124E030E085ED06
:1003E00092E06FD467E772E085ED92E0D7D2F80132
:1003F000648175814AE050E085ED92E088D361E93F
:1004000072E085ED92E0D5D2C80175DF64E670E058
:1004100080E090E0D2D4A4960FB6F894DEBF0FBE71
:10042000CDBFDF91CF911F910F9108950F931F932F
:100430000BE713E028E247E350E060E070E086EC71
:1004400092E024D71F910F91089504D06894B111C0
:1004500050C0089533D088F09F5790F0B92F992756
:10046000B751A0F0D1F0660F771F881F991F1AF0BF
:10047000BA95C9F712C0B13081F03AD0B1E0089511
:1004800037C0672F782F8827B85F39F0B93FCCF392
:10049000869577956795B395D9F73EF490958095B5
:1004A000709561957F4F8F4F9F4F089557FD9058DE
:1004B000440F551F59F05F3F71F04795880F97FB28
:1004C000991F61F09F3F79F08795089512161306E2
:1004D0001406551FF2CF4695F1DF08C01616170611
:1004E0001806991FF1CF8695710561050894089546
:1004F000E894BB2766277727CB0197F90895FC017D
:10050000918D228D892F90E0805C9F4F821B9109F5
:100510008F7399270895FC01918D828D981731F082
:10052000828DE80FF11D858D90E008958FEF9FEF8C
:100530000895FC01918D828D981761F0828DDF0105
:10054000A80FB11D5D968C91928D9F5F9F73928FC6
:1005500090E008958FEF9FEF0895FC01538D448D37
:10056000252F30E0842F90E0821B930B541710F05E
:10057000CF960895019708958EE494E0892B39F081
:1005800080E090E0892B19F089D1811125C080E0AD
:1005900090E0892B41F080E090E0892B21F00E94CF
:1005A000000081111CC080E090E0892B41F080E0C8
:1005B00090E0892B21F00E940000811113C080E09F
:1005C00090E0892BA1F080E090E0892B81F00E94DF
:1005D000000081110AC008950E940000D8CF0E9437
:1005E0000000E1CF0E940000EACF0C9400000895C3
:1005F000FC01848DDF01A80FB11DA35ABF4F2C91C0
:10060000848D90E001968F739927848FA689B7898E
:100610002C93A089B1898C91837080648C93938D85
:10062000848D981306C00288F389E02D80818F7D28
:1006300080830895EF92FF920F931F93CF93DF93E0
:10064000EC0181E0888F9B8D8C8D981305C0E88923
:10065000F989808185FD25C0F62E0B8D10E00F5F96
:100660001F4F0F731127E02E8C8DE8120BC00FB6B1
:1006700007FCFACFE889F989808185FFF5CFCE01A3
:10068000B7DFF2CF8B8DFE01E80FF11DE35AFF4F6C
:10069000F0829FB7F8940B8FEA89FB898081806292
:1006A0000AC09FB7F894EE89FF896083E889F989C9
:1006B00080818370806480839FBF81E090E0DF91C0
:1006C000CF911F910F91FF90EF900895CF93DF93FB
:1006D000EC01888D8823C1F0EA89FB89808185FD42
:1006E00005C0A889B9898C9186FD0EC00FB607FC9C
:1006F000F5CF808185FFF2CFA889B9898C9185FFDC
:10070000EDCFCE0175DFE8CFDF91CF910895CF9285
:10071000DF92EF92FF921F93CF93DF93EC016A0178
:100720007B01122FE889F98982E080834115514EBF
:1007300061057105B1F060E079E08DE390E0A7011B
:1007400096010E947C13DA01C9010197A109B10940
:10075000B695A795979587959C01211580E1380757
:10076000A8F0E889F989108260E874E88EE190E0E9
:10077000A70196010E947C13DA01C9010197A10922
:10078000B109B695A795979587959C01EC85FD8550
:100790003083EE85FF852083188EEC89FD891083D8
:1007A000EA89FB89808180618083EA89FB89808175
:1007B00088608083EA89FB89808180688083EA89F8
:1007C000FB8980818F7D8083DF91CF911F91FF9086
:1007D000EF90DF90CF90089580E090E008951F9211
:1007E0000F920FB60F9211240BB60F922F938F9387
:1007F0009F93EF93FF93E091E502F091E6028081F1
:10080000E091EB02F091EC0282FD12C090818091A8
:10081000EE028F5F8F732091EF02821751F0E0910B
:10082000EE02F0E0EB52FD4F958F8093EE0201C097
:100830008081FF91EF919F918F912F910F900BBE2F
:100840000F900FBE0F901F9018951F920F920FB62A
:100850000F9211240BB60F922F933F934F935F93F8
:100860006F937F938F939F93AF93BF93EF93FF9378
:1008700085ED92E0BDDEFF91EF91BF91AF919F9129
:100880008F917F916F915F914F913F912F910F9039
:100890000BBE0F900FBE0F901F90189585ED92E044
:1008A0002EDE21E0892B09F420E0822F0895E5ED6A
:1008B000F2E01382128288EE93E0A0E0B0E084833D
:1008C0009583A683B78381E892E09183808385EC4A
:1008D00090E09587848784EC90E09787868780EC0A
:1008E00090E0918B808B81EC90E0938B828B82ECFB
:1008F00090E0958B848B86EC90E0978B868B118EA5
:10090000128E138E148E0895089590D2FDDFC6DCEA
:10091000CCEBD2E0F6DC2097E9F32EDEFBCFCF92D2
:10092000DF92EF92FF920F931F93CF93DF936C01AF
:100930007A018B01C0E0D0E0CE15DF0581F0D8014F
:100940006D918D01D601ED91FC910190F081E02D2A
:10095000C6011995892B11F02196EECF7E01C701B2
:10096000DF91CF911F910F91FF90EF90DF90CF908B
:1009700008956115710579F0FB0101900020E9F7F8
:100980003197AF01461B570BDC01ED91FC910280C2
:10099000F381E02D199480E090E00895EACFDC0126
:1009A000ED91FC910190F081E02D19946FE872E0D7
:1009B000E0CF0F931F93CF93DF93EC01DADF8C012D
:1009C000CE01F4DF800F911FDF91CF911F910F9126
:1009D00008958F929F92AF92BF92EF92FF920F93E2
:1009E0001F93CF93DF93CDB7DEB7A1970FB6F894DF
:1009F000DEBF0FBECDBF7C01FA01CB0119A22230B0
:100A000008F42AE08E010F5D1F4F822E912CA12C3D
:100A1000B12CBF01A50194010E947C13F901CA0108
:100A2000015011096A3010F4605D01C0695CD801A1
:100A30006C93232B242B252B61F7B801C70199DF79
:100A4000A1960FB6F894DEBF0FBECDBFDF91CF9158
:100A50001F910F91FF90EF90BF90AF909F908F905C
:100A600008952115310541F4DC01ED91FC910190CF
:100A7000F081E02D642F1994ACCF9A01AB0160E0B6
:100A800070E0EFCFCF92DF92EF92FF920F931F9320
:100A9000CF93DF932115310581F4DC01ED91FC91B9
:100AA0000190F081E02D642FDF91CF911F910F9184
:100AB000FF90EF90DF90CF9019942A303105F1F438
:100AC00077FF1BC06A017B01EC016DE268DF8C01DE
:100AD00044275527BA014C195D096E097F092AE0A0
:100AE000CE0177DF800F911FDF91CF911F910F9182
:100AF000FF90EF90DF90CF9008952AE0DF91CF91A3
:100B00001F910F91FF90EF90DF90CF9062CF9A01ED
:100B1000AB01770F660B770BB5CF7F928F929F92C9
:100B2000AF92BF92CF92DF92EF92FF920F931F93FB
:100B3000CF93DF938C016A017B01722E9A01AB0186
:100B4000C701B6010E947813882319F062E972E0A8
:100B500027C046015701E894B7F82FEF3FEF4FE762
:100B60005FE7C501B4010E94781381110DC02FEF1A
:100B70003FEF4FE75FE7C501B4010E941612181658
:100B80001CF466E972E00CC02FEF3FEF4FE75FE423
:100B9000C701B6010E940E1318168CF46AE972E0C0
:100BA000C801DF91CF911F910F91FF90EF90DF90DF
:100BB000CF90BF90AF909F908F907F90DACE2FEF25
:100BC0003FEF4FE75FECC701B6010E94161287FDA9
:100BD000E5CF20E030E0A901C701B6010E9416125E
:100BE00087FF09C06DE2C801DADEEC01F7FAF09484
:100BF000F7F8F09402C0C0E0D0E0B12C60E070E003
:100C000080E09FE37B1441F020E030E040E251E4DB
:100C10000E941A12B394F6CFA70196010E94B01158
:100C20006B017C0117DC4B015C012AE0AB01BC01CC
:100C3000C801CFDEC80FD91F7720A1F1C501B401CB
:100C40000E9485129B01AC01C701B6010E94AF1141
:100C50006B017C016EE2C801A2DEC80FD91F20E043
:100C600030E040E251E4C701B6010E9412134B018B
:100C70005C01F0DB6B017C014AE050E0C801FDDE65
:100C8000C80FD91FB60180E090E00E9485129B0139
:100C9000AC01C501B4010E94AF116B017C017A94D3
:100CA0007110DDCFCE01DF91CF911F910F91FF9099
:100CB000EF90DF90CF90BF90AF909F908F907F90FC
:100CC00008952BCF1F920F920FB60F9211242F93DE
:100CD0003F938F939F93AF93BF93809173039091B2
:100CE0007403A0917503B09176033091720323E0F1
:100CF000230F2D3720F40196A11DB11D05C026E854
:100D0000230F0296A11DB11D2093720380937303DC
:100D100090937403A0937503B09376038091770347
:100D200090917803A0917903B0917A030196A11D67
:100D3000B11D8093770390937803A0937903B093C8
:100D40007A03BF91AF919F918F913F912F910F9017
:100D50000FBE0F901F9018952FB7F89460917303F2
:100D60007091740380917503909176032FBF08955D
:100D70003FB7F8948091770390917803A09179031D
:100D8000B0917A0326B5A89B05C02F3F19F00196B4
:100D9000A11DB11D3FBFBA2FA92F982F8827820F01
:100DA000911DA11DB11DBC01CD0142E0660F771F51
:100DB000881F991F4A95D1F708958F929F92AF92FD
:100DC000BF92CF92DF92EF92FF926B017C01D0DF56
:100DD0004B015C01C114D104E104F104F1F010D71E
:100DE000C7DFDC01CB0188199909AA09BB09883E34
:100DF0009340A105B10570F321E0C21AD108E108C2
:100E0000F10888EE880E83E0981EA11CB11CC11465
:100E1000D104E104F10421F7DDCFFF90EF90DF90E2
:100E2000CF90BF90AF909F908F900895789484B5A5
:100E3000826084BD84B5816084BD85B5826085BDD6
:100E400085B5816085BDEEE6F0E0808181608083BC
:100E5000E1E8F0E01082808182608083808181609F
:100E60008083E0E8F0E0808181608083E1EBF0E066
:100E7000808184608083E0EBF0E08081816080830A
:100E8000E1E9F0E0808182608083808181608083FD
:100E9000E0E9F0E0808181608083E1EAF0E0808138
:100EA00082608083808181608083E0EAF0E08081DD
:100EB00081608083E1E2F1E08081826080838081D3
:100EC00081608083E0E2F1E0808181608083EAE7F5
:100ED000F0E0808184608083808182608083808173
:100EE000816080838081806880831092C100089532
:100EF0001F93CF93DF93182FEB0161E016D120975A
:100F000011F460E004C0CF3FD10531F461E0812FDE
:100F1000DF91CF911F9145C1E12FF0E0E45DFE4FDD
:100F2000E4918E2F90E0FC013197E231F10508F059
:100F30009DC08827EE58FF4F8F4F0C949E1384B5A9
:100F4000806884BDC7BD97C084B5806284BDC8BDBC
:100F500092C080918000806880938000D093890047
:100F6000C093880088C08091800080628093800058
:100F7000D0938B00C0938A007EC0809180008860EF
:100F800080938000D0938D00C0938C0074C08091BA
:100F9000B00080688093B000C093B3006CC08091B3
:100FA000B00080628093B000C093B40064C08091B0
:100FB0009000806880939000D0939900C09398002F
:100FC0005AC080919000806280939000D0939B00E3
:100FD000C0939A0050C080919000886080939000E8
:100FE000D0939D00C0939C0046C08091A000806873
:100FF0008093A0008091A0008F7B8093A000D0936D
:10100000A900C093A80037C08091A000806280939F
:10101000A000D093AB00C093AA002DC08091A00087
:1010200088608093A000D093AD00C093AC0023C033
:1010300080912001806880932001D0932901C09382
:10104000280119C080912001806280932001D093F3
:101050002B01C0932A010FC08091200188608093EA
:101060002001D0932D01C0932C0105C0C038D105BB
:101070000CF04CCF46CFDF91CF911F91089590E0B7
:10108000FC013197E231F10508F04EC08827EC579A
:10109000FF4F8F4F0C949E13809180008F7703C079
:1010A000809180008F7D80938000089580918000E2
:1010B000877FF9CF84B58F7702C084B58F7D84BDDB
:1010C00008958091B0008F7703C08091B0008F7D2C
:1010D0008093B0000895809190008F7707C0809131
:1010E00090008F7D03C080919000877F8093900057
:1010F00008958091A0008F7707C08091A0008F7D18
:1011000003C08091A000877F8093A0000895809104
:1011100020018F7707C0809120018F7D03C08091CF
:101120002001877F809320010895CF93DF9390E083
:10113000FC01EE58FE4F2491FC01E854FE4F8491CF
:10114000882361F190E0880F991FFC01E85EFD4F54
:10115000C591D491FC01E250FE4FA591B49161116B
:1011600009C09FB7F8948881209582238883EC91E9
:101170002E230BC0623061F49FB7F8948881322F20
:10118000309583238883EC912E2B2C939FBF06C030
:101190008FB7F894E8812E2B28838FBFDF91CF91F2
:1011A00008951F93CF93DF93282F30E0F901E45D7A
:1011B000FE4F8491F901EE58FE4FD491F901E854A5
:1011C000FE4FC491CC23B9F0162F811158DFEC2FBC
:1011D000F0E0EE0FFF1FE250FE4FA591B4919FB7D4
:1011E000F894111104C08C91D095D82302C0EC91D1
:1011F000DE2BDC939FBFDF91CF911F91089508955F
:101200000F931F93CF93DF938C01EB0188E2FB01D7
:1012100011928A95E9F74BE050E06EE972E0CE0159
:101220000E94C7141B8681E090E0A0E0B0E08C87AC
:101230009D87AE87BF87F80184819581A681B7819C
:10124000888B998BAA8BBB8B83E090E0A0E0B0E009
:101250008C8B9D8BAE8BBF8B1CA21DA21EA21FA2CE
:10126000188E198E1A8E1B8E1C8E1D8E1E8E1F8E32
:101270008AE097EDA3E2BCE388A399A3AAA3BBA34A
:10128000DF91CF911F910F910895BCC4DF92EF922F
:10129000FF920F931F93CF93DF93EC01D22E89EA35
:1012A00092E0998388831B821A824C835D836E83CC
:1012B0007F8386E090E0A5D47C01A8016D2D13D238
:1012C000FB82EA82DF91CF911F910F91FF90EF9007
:1012D000DF900895EF92FF920F931F93CF93DF93C8
:1012E0001F921F92CDB7DEB769834A83E12CF12CA0
:1012F00000E010E021E042E050E0BE016F5F7F4F70
:10130000FC018281938129D20F900F90DF91CF91C0
:101310001F910F91FF90EF900895462FFC01608779
:101320006DE3D8DF6EE170E080E090E046CD0F9392
:101330001F93CF93DF93EC01062F188560E0EDDF5C
:1013400069E170E080E090E038DD40E067E0CE01E8
:10135000C1DF002311F040E801C040E06FE3CE019F
:10136000B9DF6AE070E080E090E027DD612FCE0118
:10137000D4DF64E170E080E090E0DF91CF911F91D5
:101380000F911BCDEF920F931F93CF93DF931F927B
:10139000CDB7DEB76983E12C01E010E09E012F5F3D
:1013A0003F4F41E050E0B901FC01828193819CD222
:1013B00089810F90DF91CF911F910F91EF90089548
:1013C000EF92FF920F931F93CF93DF93EC01062FC1
:1013D00060E08A819B81ABD185E5E82EF12C61E04C
:1013E0008A819B81A4D1182F81110BC06AE070E023
:1013F00080E090E0E2DC81E0E81AF10881F710E09B
:1014000048C060E0CE01BEDF803A51F068EE73E084
:1014100080E090E0D2DC60E0CE01B4DF803A79F782
:1014200060E0CE017ADF40E26FE3CE0153DF6EE190
:1014300070E080E090E0C1DC60E0CE01A3DF803AA4
:1014400029F06AE070E080E090E0F5CF62E370E0C0
:1014500080E090E0B2DC40E06EE3CE013BDF6AE08A
:1014600070E080E090E0A9DC40E067E0CE0132DF90
:1014700040E06FE3CE012EDF6AE070E080E090E0B4
:101480009CDC602FCE0149DF64E170E080E090E0F9
:1014900094DC812FDF91CF911F910F91FF90EF90FE
:1014A0000895EF920F931F93CF93DF931F92CDB7C1
:1014B000DEB76983022F10E0E12C9A0141E050E091
:1014C000BE016F5F7F4FFC01828193810DD20F902F
:1014D000DF91CF911F910F91EF900895BF92CF921E
:1014E000DF92EF92FF920F931F93CF93DF9300D081
:1014F00000D0CDB7DEB78C01CB01B42E2CE0F801C3
:1015000011922A95E9F7AE014F5F5F4F26E0FA018D
:1015100011922A95E9F726E06B2DC3DF69817A8164
:10152000CB80DC80ED80FE80F4E1BF1681F0FB15FE
:1015300028F088E0B816B9F1EEE007C0F8E2BF166F
:1015400091F18EE2B81679F1EAE1BE1259C0072E88
:10155000000C880B990BDBD720E030E040E85DE31E
:101560000E941213F8016083718382839383B60112
:10157000DD0C880B990BCBD720E030E040E85DE331
:101580000E941213F8016483758386839783B701E1
:10159000FF0C880B990BBBD720E030E040E85DE3FF
:1015A0000E94121328C0072E000C880B990BAFD78E
:1015B00020E030E048EC52E43DD7F80160837183CD
:1015C00082839383B601DD0C880B990BA0D720E0B2
:1015D00030E048EC52E42ED7F801648375838683AB
:1015E0009783B701FF0C880B990B91D720E030E06F
:1015F00048EC52E41FD7F801608771878287938790
:10160000C80126960FB6F894DEBF0FBECDBFDF919E
:10161000CF911F910F91FF90EF90DF90CF90BF90EF
:101620000895EF92FF920F931F93CF93DF93CDB75F
:10163000DEB72C970FB6F894DEBF0FBECDBF7C018E
:101640008B0184E2FB0111928A95E9F784E290E034
:10165000A0E0B0E0FB0180839183A283B383F70114
:1016600084819581A681B781FB0184839583A683BC
:10167000B78383E090E0A0E0B0E080879187A28705
:10168000B3876ADBF801608B718B828B938B4AE1A5
:10169000B701CE01019622DF89819A81AB81BC819D
:1016A000F801848B958BA68BB78B8D819E81AF8142
:1016B000B885808F918FA28FB38F89859A85AB85EE
:1016C000BC85848F958FA68FB78F81E02C960FB63F
:1016D000F894DEBF0FBECDBFDF91CF911F910F9168
:1016E000FF90EF900895FC01608352834183138241
:1016F00080E290E0958384830895CF93DF93EC019B
:101700008B81811106C061E0CE0111D0982F882312
:1017100051F0688189819A81F2D189819A816BD255
:1017200091E0811190E0892FDF91CF9108951F936F
:10173000CF93DF93EC01162F89819A81D1D181E07B
:101740008B83112329F0CE01DF91CF911F91D5CF4B
:1017500081E0DF91CF911F9108958F929F92BF9268
:10176000CF92DF92EF92FF920F931F93CF93DF936D
:10177000DA01AE0DBF1DEC01EC81FD81EA17FB071C
:1017800090F1B22E6A014B01EC01688189819A8146
:10179000B6D1E114F10479F489819A81DC01ED91EB
:1017A000FC910280F381E02DA601B4011995C816C1
:1017B000D906C9F412C00115110571F389819A8106
:1017C000DC01ED91FC910280F381E02DA701B801CD
:1017D0001995E816F90639F4DFCF6B2D89819A81C6
:1017E00098D191E0811190E0892FDF91CF911F91E5
:1017F0000F91FF90EF90DF90CF90BF909F908F90D0
:101800000895CF92DF92EF92FF920F931F93CF93A1
:10181000DF937C016B018A01DC016C9111968D9143
:101820009C911297D9D190E00817190791F4E6011D
:101830000C0D1D1DC017D10771F0F7018181928138
:10184000DC01ED91FC910284F385E02D19958993DB
:10185000F1CF80E001C081E0DF91CF911F910F9126
:10186000FF90EF90DF90CF9008959F92AF92BF923C
:10187000CF92DF92EF92FF920F931F93CF93DF935C
:101880006C015B017A01922EC0E0D0E0CE15DF053D
:10189000F0F4F6018481958187010C1B1D0B8017E4
:1018A000910708F48C01C701801B910BC817D90759
:1018B00010F0292D01C020E0A801B5016C0F7D1F9B
:1018C000C6019FDF882321F0C00FD11FDFCF81E049
:1018D000DF91CF911F910F91FF90EF90DF90CF900C
:1018E000BF90AF909F900895AF92BF92CF92DF923A
:1018F000EF92FF920F931F93CF93DF93EC01690157
:1019000058012E2DE12CF12C00E010E026DF882379
:1019100079F021E0A501B601CE01DF91CF911F91B1
:101920000F91FF90EF90DF90CF90BF90AF909DCF41
:1019300080E0DF91CF911F910F91FF90EF90DF90AA
:10194000CF90BF90AF9008958091AF0390E0209129
:10195000B003821B910908959091B0038091AF0369
:10196000981750F4E92FF0E0EF54FC4F208130E05D
:101970009F5F9093B00302C02FEF3FEFC90108951E
:10198000E091B0038091AF03E81730F4F0E0EF543A
:10199000FC4F808190E008958FEF9FEF08950895A8
:1019A000CF93DF93EC01E0918703F09188033097A8
:1019B000F1F09091B0038091AF039817C0F090E0E0
:1019C000292F30E02617370754F4DE01A20FB31F8A
:1019D0004C91D901AF54BC4F4C939F5FF1CF109203
:1019E000B0036093AF03CB01DF91CF911994DF91E6
:1019F000CF910895E0918903F0918A03309729F0FF
:101A000010928D0310928C0319940895CF92DF9257
:101A1000EF92FF920F931F93CF93DF937C01CB0143
:101A20008A0120918B03222389F0EB016B01C40E04
:101A3000D51ECC15DD0561F06991D701ED91FC91C2
:101A40000190F081E02DC7011995F3CF642F02D1E9
:101A5000C801DF91CF911F910F91FF90EF90DF9020
:101A6000CF900895CF93DF931F92CDB7DEB76983F0
:101A700020918B032223D1F020918C03203240F05F
:101A800021E030E0FC013383228380E090E014C049
:101A900080918D03E82FF0E0E257FC4F998190830D
:101AA0008F5F80938D0380938C0304C061E0CE012F
:101AB0000196D0D081E090E00F90DF91CF91089512
:101AC000FC011382128288EE93E0A0E0B0E08483F0
:101AD0009583A683B78387EB92E0918380830895F3
:101AE0001092B0031092AF0310928D0310928C03EA
:101AF0008AD08AEF9CE0DBD080ED9CE0D3C081E00F
:101B000080938B036093AE0310928D0310928C032D
:101B100008950F93062F21E040918C036EE873E047
:101B20008091AE03C8D110928D0310928C03109255
:101B30008B030F9108954F925F926F927F92AF92B5
:101B4000BF92CF92EF92FF920F931F93CF93DF93A9
:101B50005C01F62ED42F28013901EE2011F1CFDFE0
:101B6000CE2DC43008F0C3E0C150C0F028E0C29FC1
:101B7000C0011124A301920104C0569547953795E1
:101B800027958A95D2F7CA01B901D501ED91FC914B
:101B90000190F081E02DC5011995E6CF60E0C50107
:101BA000B8DF4D2FD13208F040E22C2D61EB73E00D
:101BB0008F2D9CD01092B0038093AF03DF91CF9113
:101BC0001F910F91FF90EF90CF90BF90AF907F90BB
:101BD0006F905F904F900895CF92EF920F931F9365
:101BE000C22EE12C00E010E09801A5DF1F910F91BB
:101BF000EF90CF90089561E08CCF8BE793E060CFBA
:101C00000895A4C53BC61092440481E08093420429
:101C10001092410461E084E1C4DA61E085E1C1DA57
:101C2000E9EBF0E080818E7F808380818D7F8083EF
:101C300088E48093B80085E48093BC000895ECEBC1
:101C4000F0E080818A7B808360E084E1AADA60E052
:101C500085E1A7CA4091F303262F30E0240F311D00
:101C600021323105DCF4209144042430C9F4FC0114
:101C700080E090E0861758F43091F3032191DC0165
:101C8000AB50BC4FA30FB11D2C930196F3CF8091A5
:101C9000F303680F6093F30380E0089581E00895F3
:101CA00082E00895909338048093370408959093C8
:101CB0003A0480933904089585EC8093BC00109217
:101CC00044040895CF93DF9391E090933C048823DC
:101CD00051F0C091B800D091BA00B1DF94DFD09339
:101CE000BA00C093B800DF91CF9108954F925F92F0
:101CF0006F927F928F929F92AF92BF92CF92DF921C
:101D0000EF92FF920F931F93CF93DF93F82E162F2E
:101D1000072FC42FE22E413208F0BAC029D84B0158
:101D20005C01D0914404DD2321F180913D04909128
:101D30003E04A0913F04B0914004892B8A2B8B2B49
:101D400081F316D840903D0450903E0460903F04CB
:101D500070904004DC01CB0188199909AA09BB09DC
:101D6000481659066A067B06E0F680913B04AADF16
:101D70008FC081E080934404E09242049FEF9093EF
:101D8000D103109216049C0F909315048093430482
:101D9000909143048F2D880F892B80934304809169
:101DA0004104813089F5109241040E94B8066B010C
:101DB0007C01809143048093BB0080913D0490910D
:101DC0003E04A0913F04B0914004892B8A2B8B2BB9
:101DD000A9F00E94B80680903D0490903E04A09027
:101DE0003F04B0904004DC01CB018C199D09AE0981
:101DF000BF0988169906AA06BB0690F18091BC001F
:101E000083FDD7CF85EC01C085EE8093BC000E9496
:101E1000B8066B017C0180914404813029F58091E2
:101E20003D0490913E04A0913F04B0914004892B61
:101E30008A2B8B2B81F30E94B80680903D049090F2
:101E40003E04A0903F04B0904004DC01CB018C190B
:101E50009D09AE09BF0988169906AA06BB06D8F6E1
:101E600080913B042FDF15C0809116048C1710F46D
:101E7000C0911604A7E1B4E0912FE12FF02F8E2F2F
:101E8000891B8C1718F48D918193F9CFDC2F01C039
:101E9000D0E08D2FDF91CF911F910F91FF90EF90A8
:101EA000DF90CF90BF90AF909F908F907F906F907A
:101EB0005F904F9008954F925F926F927F928F92B2
:101EC0009F92AF92BF92CF92DF92EF92FF920F93C9
:101ED0001F93CF93DF93413208F0C5C0122FF42E29
:101EE000D72EE62ED82F0E94B8064B015C01C09178
:101EF0004404CC2311F180913D0490913E04A091C3
:101F00003F04B0914004892B8A2B8B2B81F30E94D4
:101F1000B80640903D0450903E0460903F0470909D
:101F20004004DC01CB0188199909AA09BB094816AC
:101F300059066A067B06D8F683C082E08093440483
:101F4000009342048FEF8093D10310921604F09215
:101F500015049E2DA7E1B4E0EE2DFD2D8E2F891BDB
:101F60008F1518F481918D93F9CF109243049091BD
:101F70004304DD0FD92BD093430480914104813079
:101F800089F5109241040E94B8066B017C01809192
:101F900043048093BB0080913D0490913E04A09146
:101FA0003F04B0914004892B8A2B8B2BA9F00E940F
:101FB000B80680903D0490903E04A0903F04B090FD
:101FC0004004DC01CB018C199D09AE09BF098816BC
:101FD0009906AA06BB06A0F18091BC0083FDD7CF6D
:101FE00085EC01C085EE8093BC000E94B8066B01B1
:101FF0007C01112351F180914404823031F58091AC
:102000003D0490913E04A0913F04B0914004892B7F
:102010008A2B8B2B71F30E94B80680903D04909020
:102020003E04A0903F04B0904004DC01CB018C1929
:102030009D09AE09BF0988169906AA06BB06C8F60F
:1020400080913B043FDEC5E013C08091D1038F3FF8
:1020500079F08091D103803241F08091D1038033B7
:1020600031F0C4E005C0C1E003C0C2E001C0C3E07C
:102070008C2FDF91CF911F910F91FF90EF90DF9008
:10208000CF90BF90AF909F908F907F906F905F9018
:102090004F90089585ED8093BC0080913D04909110
:1020A0003E04A0913F04B09140040796A11DB11DCC
:1020B00023E0B695A795979587952A95D1F7209116
:1020C000BC0024FF1BC040913D0450913E04609130
:1020D0003F0470914004452B462B472B81F300971A
:1020E000A105B10541F02AE22A95F1F700C0019758
:1020F000A109B109E4CF80913B04E4CD10924404DE
:1021000008951F920F920FB60F9211240BB60F92E3
:102110002F933F934F935F936F937F938F939F93EF
:10212000AF93BF93EF93FF938091B900887F803680
:1021300009F49DC070F5883209F45CC090F48031D8
:1021400009F455C038F4882309F4F3C0883009F441
:102150004EC0F2C0883109F44DC0803209F45EC02F
:10216000EBC0803409F469C050F4803309F456C0E0
:10217000883309F0E1C08093D1039EDDDDC0803556
:1021800009F44FC0883509F45DC0883409F0D4C023
:10219000D2C0883909F4C3C0A8F4883709F467C0ED
:1021A00038F4883609F463C0803709F460C0C4C0CD
:1021B000883809F4B4C0803909F45FC0803809F068
:1021C000BBC05BC0803B09F482C038F4803A09F49C
:1021D00066C0883A09F47BC0AFC0803C09F4A3C054
:1021E000883C09F4A0C0883B09F486C0A5C0809152
:1021F000430410C09091160480911504981770F54F
:10220000E091160481E08E0F80931604F0E0E95E01
:10221000FB4F80818093BB0085EC82C08093D1030B
:102220008AC0E091160481E08E0F8093160480919D
:10223000BB00F0E0E95EFB4F808390911604809133
:1022400015046AC0E091160481E08E0F8093160495
:102250008091BB00F0E0E95EFB4F808380914204F7
:10226000811169C081E08093410484EA5DC083E00C
:10227000809344041092D203CFCF8091D203803256
:1022800008F04DC0E091D20381E08E0F8093D2031D
:102290008091BB00F0E0ED52FC4F8083BDCF0CDDA0
:1022A0008091D203803230F4E091D203F0E0ED521D
:1022B000FC4F10826091D20370E0E0913704F091FE
:1022C000380483ED93E019951092D20335C084E071
:1022D000809344041092F4031092F303E0913904C4
:1022E000F0913A0419958091F303811105C081E0C2
:1022F0008093F3031092F503E091F40381E08E0FD5
:102300008093F403F0E0EB50FC4F80818093BB009E
:102310009091F4038091F303981708F47DCF85E83A
:102320008093BC0009C085EC8093BC0010924404EB
:1023300003C01092D103AEDEFF91EF91BF91AF9138
:102340009F918F917F916F915F914F913F912F91CD
:102350000F900BBE0F900FBE0F901F901895505806
:10236000BB27AA270ED049C13AD130F03FD120F087
:1023700031F49F3F11F41EF42FC10EF4E095E7FBFA
:1023800025C1E92F0E94560278F3BA176207730736
:102390008407950720F079F4A6F50C9478020EF4E2
:1023A000E0950B2EBA2FA02D0B01B90190010C0165
:1023B000CA01A0011124FF27591B99F0593F50F47D
:1023C000503E68F11A16F040A22F232F342F4427D5
:1023D000585FF3CF469537952795A795F0405395CD
:1023E000C9F77EF41F16BA0B620B730B840BBAF09D
:1023F0009150A1F0FF0FBB1F661F771F881FC2F708
:102400000EC0BA0F621F731F841F48F4879577951B
:102410006795B795F7959E3F08F0B1CF9395880FD4
:1024200008F09927EE0F979587950895ABD008F49B
:1024300081E008950DD0E1C0D9D048F0D0D038F077
:1024400021F45F3F21F0C2C051110C947902C4C045
:102450000E94560288F39923B9F35523A1F3951BE3
:10246000550BBB27AA2762177307840738F09F5FB5
:102470005F4F220F331F441FAA1FA9F334D00E2E23
:102480003AF0E0E831D091505040E695001CCAF790
:102490002AD0FE2F28D0660F771F881FBB1F261754
:1024A00037074807AB07B0E809F0BB0B802DBF0129
:1024B000FF2793585F4F32F09E3F510570F086C062
:1024C0000C9479025F3FE4F3983ED4F386957795B8
:1024D0006795B795F7959F5FC9F7880F911D9695FA
:1024E000879597F90895E1E0660F771F881FBB1F56
:1024F000621773078407BA0720F0621B730B840B03
:10250000BA0BEE1F88F7E0950895E89409C097FB91
:102510003EF490958095709561957F4F8F4F9F4FBA
:102520009923A9F0F92F96E9BB279395F6958795FE
:1025300077956795B795F111F8CFFAF4BB0F11F4C1
:1025400060FF1BC06F5F7F4F8F4F9F4F16C0882368
:1025500011F096E911C0772321F09EE8872F762F9E
:1025600005C0662371F096E8862F70E060E02AF0DF
:102570009A95660F771F881FDAF7880F96958795CB
:1025800097F90895990F0008550FAA0BE0E8FEEFA0
:1025900016161706E807F907C0F012161306E40727
:1025A000F50798F0621B730B840B950B39F40A2620
:1025B00061F0232B242B252B21F408950A2609F4FE
:1025C000A140A6958FEF811D811D089597F99F6702
:1025D00080E870E060E008959FEF80EC08950024AB
:1025E0000A941616170618060906089500240A9478
:1025F00012161306140605060895092E0394000CFE
:1026000011F4882352F0BB0F40F4BF2B11F460FF8C
:1026100004C06F5F7F4F8F4F9F4F0895B3DF08F463
:102620008FEF08950CD0E9CFDADF28F0DFDF18F064
:10263000952309F0CBCFD0CF11240C9479020E94BE
:10264000560290F3959FC1F3950F50E0551F629F7E
:10265000F001729FBB27F00DB11D639FAA27F00DFB
:10266000B11DAA1F649F6627B00DA11D661F829F22
:102670002227B00DA11D621F739FB00DA11D621F07
:10268000839FA00D611D221F749F3327A00D611D24
:10269000231F849F600D211D822F762F6A2F112406
:1026A0009F57504092F0E9F088234AF0EE0FFF1F49
:1026B000BB1F661F771F881F91505040A9F79E3F90
:1026C000510578F083CF0C9479025F3FE4F3983E94
:1026D000D4F3869577956795B795F795E7959F5FBE
:1026E000C1F7FE2B880F911D9695879597F9089550
:1026F00049DF880B990B0895A1E21A2EAA1BBB1B78
:10270000FD010DC0AA1FBB1FEE1FFF1FA217B307BD
:10271000E407F50720F0A21BB30BE40BF50B661FD3
:10272000771F881F991F1A9469F760957095809597
:1027300090959B01AC01BD01CF010895EE0FFF1FE5
:10274000881F8BBF0790F691E02D19940F931F936C
:10275000CF93DF938230910510F482E090E0E09116
:102760004704F091480420E030E0A0E0B0E030976A
:1027700019F1408151810281138148175907C8F02E
:102780008417950769F4109731F012960C931297FD
:1027900013961C9327C0009347041093480422C04B
:1027A0002115310519F04217530718F49A01BD019C
:1027B000EF01DF01F801DBCF21153105F9F0281B0E
:1027C000390B2430310580F48A819B8161157105B4
:1027D00021F0FB019383828304C09093480480938B
:1027E0004704FE01329644C0FE01E20FF31F8193BD
:1027F000919322503109398328833AC020914504AE
:1028000030914604232B41F42091020230910302BF
:102810003093460420934504209100023091010238
:102820002115310541F42DB73EB740910402509176
:102830000502241B350BE0914504F0914604E21794
:10284000F307A0F42E1B3F0B2817390778F0AC01D3
:102850004E5F5F4F2417350748F04E0F5F1F5093B0
:102860004604409345048193919302C0E0E0F0E078
:10287000CF01DF91CF911F910F910895CF93DF93F7
:10288000009709F481C0FC01329713821282A09153
:102890004704B0914804109781F420813181820F60
:1028A000931F20914504309146042817390751F5AC
:1028B000F0934604E093450467C0ED0120E030E06A
:1028C000CE17DF0740F44A815B819E014115510517
:1028D000F1F0EA01F5CFD383C28340815181840FA7
:1028E000951FC817D90759F488819981840F951FBE
:1028F0000296918380838A819B81938382832115B1
:10290000310529F4F0934804E09347043DC0E90100
:10291000FB83EA8349915991C40FD51FEC17FD073A
:1029200061F480819181840F951F0296E90199835A
:102930008883828193819B838A83E0E0F0E0129612
:102940008D919C911397009719F0FD01DC01F7CF51
:102950008D919C9111979D012E5F3F4F820F931F88
:1029600020914504309146042817390769F43097BF
:1029700029F4109248041092470402C01382128274
:10298000B0934604A0934504DF91CF910895FB01D5
:10299000DC014150504048F001900D920020C9F7F1
:1029A00001C01D9241505040E0F70895F894FFCFC8
:1029B00000004904200009004F7269656E7461745B
:1029C000696F6E2053656E736F7220546573740067
:1029D0004F6F6F70732C206E6F20424E4F30353525
:1029E000206465746563746564202E2E2E20436810
:1029F00065636B20796F757220776972696E6720E5
:102A00006F722049324320414444522100583A20F9
:102A1000000958273A200009593A20000959273A55
:102A20002000095A3A2000095A273A2000000000E5
:102A3000001A038F04AD0266037F0299028B020D18
:102A40000A006E616E00696E66006F766600424E27
:102A50004F3035350000000000FF0845094D0111D9
:102A60000B000900000000320D060DEC03CF0CA492
:062A70000CAC0CC00C00D0
:00000001FF
